{
  "_format": "hh-sol-artifact-1",
  "contractName": "BonzoVault",
  "sourceName": "contracts/BonzoVault.sol",
  "abi": [
    {
      "inputs": [],
      "stateMutability": "nonpayable",
      "type": "constructor"
    },
    {
      "anonymous": false,
      "inputs": [
        {
          "indexed": true,
          "internalType": "address",
          "name": "user",
          "type": "address"
        },
        {
          "indexed": false,
          "internalType": "uint256",
          "name": "amount",
          "type": "uint256"
        }
      ],
      "name": "Deposit",
      "type": "event"
    },
    {
      "anonymous": false,
      "inputs": [
        {
          "indexed": false,
          "internalType": "int256",
          "name": "newLowerTick",
          "type": "int256"
        },
        {
          "indexed": false,
          "internalType": "int256",
          "name": "newUpperTick",
          "type": "int256"
        },
        {
          "indexed": false,
          "internalType": "string",
          "name": "reason",
          "type": "string"
        }
      ],
      "name": "RangeAdjusted",
      "type": "event"
    },
    {
      "anonymous": false,
      "inputs": [
        {
          "indexed": true,
          "internalType": "address",
          "name": "user",
          "type": "address"
        },
        {
          "indexed": false,
          "internalType": "uint256",
          "name": "amount",
          "type": "uint256"
        }
      ],
      "name": "Withdraw",
      "type": "event"
    },
    {
      "anonymous": false,
      "inputs": [
        {
          "indexed": false,
          "internalType": "uint256",
          "name": "amount",
          "type": "uint256"
        },
        {
          "indexed": false,
          "internalType": "string",
          "name": "reason",
          "type": "string"
        }
      ],
      "name": "WithdrawToStaking",
      "type": "event"
    },
    {
      "inputs": [
        {
          "internalType": "int256",
          "name": "_lowerTick",
          "type": "int256"
        },
        {
          "internalType": "int256",
          "name": "_upperTick",
          "type": "int256"
        }
      ],
      "name": "adjustRange",
      "outputs": [],
      "stateMutability": "nonpayable",
      "type": "function"
    },
    {
      "inputs": [],
      "name": "currentTick",
      "outputs": [
        {
          "internalType": "int256",
          "name": "",
          "type": "int256"
        }
      ],
      "stateMutability": "view",
      "type": "function"
    },
    {
      "inputs": [],
      "name": "deposit",
      "outputs": [],
      "stateMutability": "payable",
      "type": "function"
    },
    {
      "inputs": [
        {
          "internalType": "address",
          "name": "",
          "type": "address"
        }
      ],
      "name": "deposits",
      "outputs": [
        {
          "internalType": "uint256",
          "name": "",
          "type": "uint256"
        }
      ],
      "stateMutability": "view",
      "type": "function"
    },
    {
      "inputs": [],
      "name": "getCurrentTick",
      "outputs": [
        {
          "internalType": "int256",
          "name": "",
          "type": "int256"
        }
      ],
      "stateMutability": "view",
      "type": "function"
    },
    {
      "inputs": [],
      "name": "getPositionState",
      "outputs": [
        {
          "internalType": "int256",
          "name": "tick",
          "type": "int256"
        },
        {
          "internalType": "int256",
          "name": "lower",
          "type": "int256"
        },
        {
          "internalType": "int256",
          "name": "upper",
          "type": "int256"
        },
        {
          "internalType": "uint256",
          "name": "liquidity",
          "type": "uint256"
        }
      ],
      "stateMutability": "view",
      "type": "function"
    },
    {
      "inputs": [],
      "name": "isInRange",
      "outputs": [
        {
          "internalType": "bool",
          "name": "",
          "type": "bool"
        }
      ],
      "stateMutability": "view",
      "type": "function"
    },
    {
      "inputs": [],
      "name": "lowerTick",
      "outputs": [
        {
          "internalType": "int256",
          "name": "",
          "type": "int256"
        }
      ],
      "stateMutability": "view",
      "type": "function"
    },
    {
      "inputs": [],
      "name": "owner",
      "outputs": [
        {
          "internalType": "address",
          "name": "",
          "type": "address"
        }
      ],
      "stateMutability": "view",
      "type": "function"
    },
    {
      "inputs": [
        {
          "internalType": "int256",
          "name": "_tick",
          "type": "int256"
        }
      ],
      "name": "setCurrentTick",
      "outputs": [],
      "stateMutability": "nonpayable",
      "type": "function"
    },
    {
      "inputs": [],
      "name": "totalLiquidity",
      "outputs": [
        {
          "internalType": "uint256",
          "name": "",
          "type": "uint256"
        }
      ],
      "stateMutability": "view",
      "type": "function"
    },
    {
      "inputs": [],
      "name": "upperTick",
      "outputs": [
        {
          "internalType": "int256",
          "name": "",
          "type": "int256"
        }
      ],
      "stateMutability": "view",
      "type": "function"
    },
    {
      "inputs": [
        {
          "internalType": "uint256",
          "name": "amount",
          "type": "uint256"
        }
      ],
      "name": "withdraw",
      "outputs": [],
      "stateMutability": "nonpayable",
      "type": "function"
    },
    {
      "inputs": [],
      "name": "withdrawToStaking",
      "outputs": [],
      "stateMutability": "nonpayable",
      "type": "function"
    },
    {
      "stateMutability": "payable",
      "type": "receive"
    }
  ],
  "bytecode": "0x608060405234801561001057600080fd5b50336000806101000a81548173ffffffffffffffffffffffffffffffffffffffff021916908373ffffffffffffffffffffffffffffffffffffffff16021790555060006001819055507fffffffffffffffffffffffffffffffffffffffffffffffffffffffffffffff886002819055506078600381905550600060048190555061110e8061009f6000396000f3fe6080604052600436106100e15760003560e01c80639b1344ac1161007f578063d0e30db011610059578063d0e30db014610281578063d9f624521461028b578063ddf32035146102b6578063fc7e286d146102e4576100e8565b80639b1344ac14610216578063a91b159414610241578063ca2871bf1461026a576100e8565b80632e1a7d4d116100bb5780632e1a7d4d1461016c57806353aad1d914610195578063727dd228146101c05780638da5cb5b146101eb576100e8565b8063065e5360146100ed578063080873571461011857806315770f9214610141576100e8565b366100e857005b600080fd5b3480156100f957600080fd5b50610102610321565b60405161010f91906109c4565b60405180910390f35b34801561012457600080fd5b5061013f600480360381019061013a9190610a10565b610327565b005b34801561014d57600080fd5b506101566103bf565b6040516101639190610a56565b60405180910390f35b34801561017857600080fd5b50610193600480360381019061018e9190610a9d565b6103c5565b005b3480156101a157600080fd5b506101aa6105b4565b6040516101b791906109c4565b60405180910390f35b3480156101cc57600080fd5b506101d56105be565b6040516101e291906109c4565b60405180910390f35b3480156101f757600080fd5b506102006105c4565b60405161020d9190610b0b565b60405180910390f35b34801561022257600080fd5b5061022b6105e8565b60405161023891906109c4565b60405180910390f35b34801561024d57600080fd5b5061026860048036038101906102639190610b26565b6105ee565b005b34801561027657600080fd5b5061027f610709565b005b610289610852565b005b34801561029757600080fd5b506102a0610954565b6040516102ad9190610b81565b60405180910390f35b3480156102c257600080fd5b506102cb610973565b6040516102db9493929190610b9c565b60405180910390f35b3480156102f057600080fd5b5061030b60048036038101906103069190610c0d565b610993565b6040516103189190610a56565b60405180910390f35b60015481565b60008054906101000a900473ffffffffffffffffffffffffffffffffffffffff1673ffffffffffffffffffffffffffffffffffffffff163373ffffffffffffffffffffffffffffffffffffffff16146103b5576040517f08c379a00000000000000000000000000000000000000000000000000000000081526004016103ac90610c97565b60405180910390fd5b8060018190555050565b60045481565b80600560003373ffffffffffffffffffffffffffffffffffffffff1673ffffffffffffffffffffffffffffffffffffffff168152602001908152602001600020541015610447576040517f08c379a000000000000000000000000000000000000000000000000000000000815260040161043e90610d03565b60405180910390fd5b80600560003373ffffffffffffffffffffffffffffffffffffffff1673ffffffffffffffffffffffffffffffffffffffff16815260200190815260200160002060008282546104969190610d52565b9250508190555080600460008282546104af9190610d52565b9250508190555060003373ffffffffffffffffffffffffffffffffffffffff16826040516104dc90610db7565b60006040518083038185875af1925050503d8060008114610519576040519150601f19603f3d011682016040523d82523d6000602084013e61051e565b606091505b5050905080610562576040517f08c379a000000000000000000000000000000000000000000000000000000000815260040161055990610e18565b60405180910390fd5b3373ffffffffffffffffffffffffffffffffffffffff167f884edad9ce6fa2440d8a54cc123490eb96d2768479d49ff9c7366125a9424364836040516105a89190610a56565b60405180910390a25050565b6000600154905090565b60035481565b60008054906101000a900473ffffffffffffffffffffffffffffffffffffffff1681565b60025481565b60008054906101000a900473ffffffffffffffffffffffffffffffffffffffff1673ffffffffffffffffffffffffffffffffffffffff163373ffffffffffffffffffffffffffffffffffffffff161461067c576040517f08c379a000000000000000000000000000000000000000000000000000000000815260040161067390610c97565b60405180910390fd5b8082126106be576040517f08c379a00000000000000000000000000000000000000000000000000000000081526004016106b590610e84565b60405180910390fd5b81600281905550806003819055507fe973c8b9c5f821791cc8aaabc3c82e83bd514bedc258ebf76871b927f808034582826040516106fd929190610ef0565b60405180910390a15050565b60008054906101000a900473ffffffffffffffffffffffffffffffffffffffff1673ffffffffffffffffffffffffffffffffffffffff163373ffffffffffffffffffffffffffffffffffffffff1614610797576040517f08c379a000000000000000000000000000000000000000000000000000000000815260040161078e90610c97565b60405180910390fd5b60006004549050600081116107e1576040517f08c379a00000000000000000000000000000000000000000000000000000000081526004016107d890610f78565b60405180910390fd5b60006004819055507fffffffffffffffffffffffffffffffffffffffffffffffffffffffffffffff8860028190555060786003819055507f67252df4d683a80c0cef21d586cc881076ff8f53385b7c1ab2842029af85b7dd816040516108479190610fe4565b60405180910390a150565b60003411610895576040517f08c379a000000000000000000000000000000000000000000000000000000000815260040161088c90611084565b60405180910390fd5b34600560003373ffffffffffffffffffffffffffffffffffffffff1673ffffffffffffffffffffffffffffffffffffffff16815260200190815260200160002060008282546108e491906110a4565b9250508190555034600460008282546108fd91906110a4565b925050819055503373ffffffffffffffffffffffffffffffffffffffff167fe1fffcc4923d04b559f4d29a8bfc6cda04eb5b0d3c460751c2402c5c5cc9109c3460405161094a9190610a56565b60405180910390a2565b60006002546001541215801561096e575060035460015413155b905090565b600080600080600154600254600354600454935093509350935090919293565b60056020528060005260406000206000915090505481565b6000819050919050565b6109be816109ab565b82525050565b60006020820190506109d960008301846109b5565b92915050565b600080fd5b6109ed816109ab565b81146109f857600080fd5b50565b600081359050610a0a816109e4565b92915050565b600060208284031215610a2657610a256109df565b5b6000610a34848285016109fb565b91505092915050565b6000819050919050565b610a5081610a3d565b82525050565b6000602082019050610a6b6000830184610a47565b92915050565b610a7a81610a3d565b8114610a8557600080fd5b50565b600081359050610a9781610a71565b92915050565b600060208284031215610ab357610ab26109df565b5b6000610ac184828501610a88565b91505092915050565b600073ffffffffffffffffffffffffffffffffffffffff82169050919050565b6000610af582610aca565b9050919050565b610b0581610aea565b82525050565b6000602082019050610b206000830184610afc565b92915050565b60008060408385031215610b3d57610b3c6109df565b5b6000610b4b858286016109fb565b9250506020610b5c858286016109fb565b9150509250929050565b60008115159050919050565b610b7b81610b66565b82525050565b6000602082019050610b966000830184610b72565b92915050565b6000608082019050610bb160008301876109b5565b610bbe60208301866109b5565b610bcb60408301856109b5565b610bd86060830184610a47565b95945050505050565b610bea81610aea565b8114610bf557600080fd5b50565b600081359050610c0781610be1565b92915050565b600060208284031215610c2357610c226109df565b5b6000610c3184828501610bf8565b91505092915050565b600082825260208201905092915050565b7f4f6e6c79206f776e65722063616e2063616c6c20746869730000000000000000600082015250565b6000610c81601883610c3a565b9150610c8c82610c4b565b602082019050919050565b60006020820190508181036000830152610cb081610c74565b9050919050565b7f496e73756666696369656e74206465706f736974000000000000000000000000600082015250565b6000610ced601483610c3a565b9150610cf882610cb7565b602082019050919050565b60006020820190508181036000830152610d1c81610ce0565b9050919050565b7f4e487b7100000000000000000000000000000000000000000000000000000000600052601160045260246000fd5b6000610d5d82610a3d565b9150610d6883610a3d565b9250828203905081811115610d8057610d7f610d23565b5b92915050565b600081905092915050565b50565b6000610da1600083610d86565b9150610dac82610d91565b600082019050919050565b6000610dc282610d94565b9150819050919050565b7f5769746864726177616c206661696c6564000000000000000000000000000000600082015250565b6000610e02601183610c3a565b9150610e0d82610dcc565b602082019050919050565b60006020820190508181036000830152610e3181610df5565b9050919050565b7f496e76616c69642072616e67653a206c6f776572203e3d207570706572000000600082015250565b6000610e6e601d83610c3a565b9150610e7982610e38565b602082019050919050565b60006020820190508181036000830152610e9d81610e61565b9050919050565b7f52616e67652061646a7573746564206279206167656e74000000000000000000600082015250565b6000610eda601783610c3a565b9150610ee582610ea4565b602082019050919050565b6000606082019050610f0560008301856109b5565b610f1260208301846109b5565b8181036040830152610f2381610ecd565b90509392505050565b7f4e6f206c697175696469747920746f2077697468647261770000000000000000600082015250565b6000610f62601883610c3a565b9150610f6d82610f2c565b602082019050919050565b60006020820190508181036000830152610f9181610f55565b9050919050565b7f456d657267656e637920776974686472617720746f207374616b696e67000000600082015250565b6000610fce601d83610c3a565b9150610fd982610f98565b602082019050919050565b6000604082019050610ff96000830184610a47565b818103602083015261100a81610fc1565b905092915050565b7f4465706f73697420616d6f756e74206d7573742062652067726561746572207460008201527f68616e2030000000000000000000000000000000000000000000000000000000602082015250565b600061106e602583610c3a565b915061107982611012565b604082019050919050565b6000602082019050818103600083015261109d81611061565b9050919050565b60006110af82610a3d565b91506110ba83610a3d565b92508282019050808211156110d2576110d1610d23565b5b9291505056fea26469706673582212200724db3bfc6db27c5ebb583618eb5a686df9b8053153488a50b3466aa2ab398a64736f6c63430008140033",
  "linkReferences": {},
  "deployedLinkReferences": {}
}