{"contracts/BonzoVault.sol":{"BonzoVault":{"abi":[{"inputs":[],"stateMutability":"nonpayable","type":"constructor"},{"anonymous":false,"inputs":[{"indexed":true,"internalType":"address","name":"user","type":"address"},{"indexed":false,"internalType":"uint256","name":"amount","type":"uint256"}],"name":"Deposit","type":"event"},{"anonymous":false,"inputs":[{"indexed":false,"internalType":"int256","name":"newLowerTick","type":"int256"},{"indexed":false,"internalType":"int256","name":"newUpperTick","type":"int256"},{"indexed":false,"internalType":"string","name":"reason","type":"string"}],"name":"RangeAdjusted","type":"event"},{"anonymous":false,"inputs":[{"indexed":true,"internalType":"address","name":"user","type":"address"},{"indexed":false,"internalType":"uint256","name":"amount","type":"uint256"}],"name":"Withdraw","type":"event"},{"anonymous":false,"inputs":[{"indexed":false,"internalType":"uint256","name":"amount","type":"uint256"},{"indexed":false,"internalType":"string","name":"reason","type":"string"}],"name":"WithdrawToStaking","type":"event"},{"inputs":[{"internalType":"int256","name":"_lowerTick","type":"int256"},{"internalType":"int256","name":"_upperTick","type":"int256"}],"name":"adjustRange","outputs":[],"stateMutability":"nonpayable","type":"function"},{"inputs":[],"name":"currentTick","outputs":[{"internalType":"int256","name":"","type":"int256"}],"stateMutability":"view","type":"function"},{"inputs":[],"name":"deposit","outputs":[],"stateMutability":"payable","type":"function"},{"inputs":[{"internalType":"address","name":"","type":"address"}],"name":"deposits","outputs":[{"internalType":"uint256","name":"","type":"uint256"}],"stateMutability":"view","type":"function"},{"inputs":[],"name":"getCurrentTick","outputs":[{"internalType":"int256","name":"","type":"int256"}],"stateMutability":"view","type":"function"},{"inputs":[],"name":"getPositionState","outputs":[{"internalType":"int256","name":"tick","type":"int256"},{"internalType":"int256","name":"lower","type":"int256"},{"internalType":"int256","name":"upper","type":"int256"},{"internalType":"uint256","name":"liquidity","type":"uint256"}],"stateMutability":"view","type":"function"},{"inputs":[],"name":"isInRange","outputs":[{"internalType":"bool","name":"","type":"bool"}],"stateMutability":"view","type":"function"},{"inputs":[],"name":"lowerTick","outputs":[{"internalType":"int256","name":"","type":"int256"}],"stateMutability":"view","type":"function"},{"inputs":[],"name":"owner","outputs":[{"internalType":"address","name":"","type":"address"}],"stateMutability":"view","type":"function"},{"inputs":[{"internalType":"int256","name":"_tick","type":"int256"}],"name":"setCurrentTick","outputs":[],"stateMutability":"nonpayable","type":"function"},{"inputs":[],"name":"totalLiquidity","outputs":[{"internalType":"uint256","name":"","type":"uint256"}],"stateMutability":"view","type":"function"},{"inputs":[],"name":"upperTick","outputs":[{"internalType":"int256","name":"","type":"int256"}],"stateMutability":"view","type":"function"},{"inputs":[{"internalType":"uint256","name":"amount","type":"uint256"}],"name":"withdraw","outputs":[],"stateMutability":"nonpayable","type":"function"},{"inputs":[],"name":"withdrawToStaking","outputs":[],"stateMutability":"nonpayable","type":"function"},{"stateMutability":"payable","type":"receive"}],"evm":{"bytecode":{"linkReferences":{},"object":"608060405234801561001057600080fd5b50336000806101000a81548173ffffffffffffffffffffffffffffffffffffffff021916908373ffffffffffffffffffffffffffffffffffffffff16021790555060006001819055507fffffffffffffffffffffffffffffffffffffffffffffffffffffffffffffff886002819055506078600381905550600060048190555061110e8061009f6000396000f3fe6080604052600436106100e15760003560e01c80639b1344ac1161007f578063d0e30db011610059578063d0e30db014610281578063d9f624521461028b578063ddf32035146102b6578063fc7e286d146102e4576100e8565b80639b1344ac14610216578063a91b159414610241578063ca2871bf1461026a576100e8565b80632e1a7d4d116100bb5780632e1a7d4d1461016c57806353aad1d914610195578063727dd228146101c05780638da5cb5b146101eb576100e8565b8063065e5360146100ed578063080873571461011857806315770f9214610141576100e8565b366100e857005b600080fd5b3480156100f957600080fd5b50610102610321565b60405161010f91906109c4565b60405180910390f35b34801561012457600080fd5b5061013f600480360381019061013a9190610a10565b610327565b005b34801561014d57600080fd5b506101566103bf565b6040516101639190610a56565b60405180910390f35b34801561017857600080fd5b50610193600480360381019061018e9190610a9d565b6103c5565b005b3480156101a157600080fd5b506101aa6105b4565b6040516101b791906109c4565b60405180910390f35b3480156101cc57600080fd5b506101d56105be565b6040516101e291906109c4565b60405180910390f35b3480156101f757600080fd5b506102006105c4565b60405161020d9190610b0b565b60405180910390f35b34801561022257600080fd5b5061022b6105e8565b60405161023891906109c4565b60405180910390f35b34801561024d57600080fd5b5061026860048036038101906102639190610b26565b6105ee565b005b34801561027657600080fd5b5061027f610709565b005b610289610852565b005b34801561029757600080fd5b506102a0610954565b6040516102ad9190610b81565b60405180910390f35b3480156102c257600080fd5b506102cb610973565b6040516102db9493929190610b9c565b60405180910390f35b3480156102f057600080fd5b5061030b60048036038101906103069190610c0d565b610993565b6040516103189190610a56565b60405180910390f35b60015481565b60008054906101000a900473ffffffffffffffffffffffffffffffffffffffff1673ffffffffffffffffffffffffffffffffffffffff163373ffffffffffffffffffffffffffffffffffffffff16146103b5576040517f08c379a00000000000000000000000000000000000000000000000000000000081526004016103ac90610c97565b60405180910390fd5b8060018190555050565b60045481565b80600560003373ffffffffffffffffffffffffffffffffffffffff1673ffffffffffffffffffffffffffffffffffffffff168152602001908152602001600020541015610447576040517f08c379a000000000000000000000000000000000000000000000000000000000815260040161043e90610d03565b60405180910390fd5b80600560003373ffffffffffffffffffffffffffffffffffffffff1673ffffffffffffffffffffffffffffffffffffffff16815260200190815260200160002060008282546104969190610d52565b9250508190555080600460008282546104af9190610d52565b9250508190555060003373ffffffffffffffffffffffffffffffffffffffff16826040516104dc90610db7565b60006040518083038185875af1925050503d8060008114610519576040519150601f19603f3d011682016040523d82523d6000602084013e61051e565b606091505b5050905080610562576040517f08c379a000000000000000000000000000000000000000000000000000000000815260040161055990610e18565b60405180910390fd5b3373ffffffffffffffffffffffffffffffffffffffff167f884edad9ce6fa2440d8a54cc123490eb96d2768479d49ff9c7366125a9424364836040516105a89190610a56565b60405180910390a25050565b6000600154905090565b60035481565b60008054906101000a900473ffffffffffffffffffffffffffffffffffffffff1681565b60025481565b60008054906101000a900473ffffffffffffffffffffffffffffffffffffffff1673ffffffffffffffffffffffffffffffffffffffff163373ffffffffffffffffffffffffffffffffffffffff161461067c576040517f08c379a000000000000000000000000000000000000000000000000000000000815260040161067390610c97565b60405180910390fd5b8082126106be576040517f08c379a00000000000000000000000000000000000000000000000000000000081526004016106b590610e84565b60405180910390fd5b81600281905550806003819055507fe973c8b9c5f821791cc8aaabc3c82e83bd514bedc258ebf76871b927f808034582826040516106fd929190610ef0565b60405180910390a15050565b60008054906101000a900473ffffffffffffffffffffffffffffffffffffffff1673ffffffffffffffffffffffffffffffffffffffff163373ffffffffffffffffffffffffffffffffffffffff1614610797576040517f08c379a000000000000000000000000000000000000000000000000000000000815260040161078e90610c97565b60405180910390fd5b60006004549050600081116107e1576040517f08c379a00000000000000000000000000000000000000000000000000000000081526004016107d890610f78565b60405180910390fd5b60006004819055507fffffffffffffffffffffffffffffffffffffffffffffffffffffffffffffff8860028190555060786003819055507f67252df4d683a80c0cef21d586cc881076ff8f53385b7c1ab2842029af85b7dd816040516108479190610fe4565b60405180910390a150565b60003411610895576040517f08c379a000000000000000000000000000000000000000000000000000000000815260040161088c90611084565b60405180910390fd5b34600560003373ffffffffffffffffffffffffffffffffffffffff1673ffffffffffffffffffffffffffffffffffffffff16815260200190815260200160002060008282546108e491906110a4565b9250508190555034600460008282546108fd91906110a4565b925050819055503373ffffffffffffffffffffffffffffffffffffffff167fe1fffcc4923d04b559f4d29a8bfc6cda04eb5b0d3c460751c2402c5c5cc9109c3460405161094a9190610a56565b60405180910390a2565b60006002546001541215801561096e575060035460015413155b905090565b600080600080600154600254600354600454935093509350935090919293565b60056020528060005260406000206000915090505481565b6000819050919050565b6109be816109ab565b82525050565b60006020820190506109d960008301846109b5565b92915050565b600080fd5b6109ed816109ab565b81146109f857600080fd5b50565b600081359050610a0a816109e4565b92915050565b600060208284031215610a2657610a256109df565b5b6000610a34848285016109fb565b91505092915050565b6000819050919050565b610a5081610a3d565b82525050565b6000602082019050610a6b6000830184610a47565b92915050565b610a7a81610a3d565b8114610a8557600080fd5b50565b600081359050610a9781610a71565b92915050565b600060208284031215610ab357610ab26109df565b5b6000610ac184828501610a88565b91505092915050565b600073ffffffffffffffffffffffffffffffffffffffff82169050919050565b6000610af582610aca565b9050919050565b610b0581610aea565b82525050565b6000602082019050610b206000830184610afc565b92915050565b60008060408385031215610b3d57610b3c6109df565b5b6000610b4b858286016109fb565b9250506020610b5c858286016109fb565b9150509250929050565b60008115159050919050565b610b7b81610b66565b82525050565b6000602082019050610b966000830184610b72565b92915050565b6000608082019050610bb160008301876109b5565b610bbe60208301866109b5565b610bcb60408301856109b5565b610bd86060830184610a47565b95945050505050565b610bea81610aea565b8114610bf557600080fd5b50565b600081359050610c0781610be1565b92915050565b600060208284031215610c2357610c226109df565b5b6000610c3184828501610bf8565b91505092915050565b600082825260208201905092915050565b7f4f6e6c79206f776e65722063616e2063616c6c20746869730000000000000000600082015250565b6000610c81601883610c3a565b9150610c8c82610c4b565b602082019050919050565b60006020820190508181036000830152610cb081610c74565b9050919050565b7f496e73756666696369656e74206465706f736974000000000000000000000000600082015250565b6000610ced601483610c3a565b9150610cf882610cb7565b602082019050919050565b60006020820190508181036000830152610d1c81610ce0565b9050919050565b7f4e487b7100000000000000000000000000000000000000000000000000000000600052601160045260246000fd5b6000610d5d82610a3d565b9150610d6883610a3d565b9250828203905081811115610d8057610d7f610d23565b5b92915050565b600081905092915050565b50565b6000610da1600083610d86565b9150610dac82610d91565b600082019050919050565b6000610dc282610d94565b9150819050919050565b7f5769746864726177616c206661696c6564000000000000000000000000000000600082015250565b6000610e02601183610c3a565b9150610e0d82610dcc565b602082019050919050565b60006020820190508181036000830152610e3181610df5565b9050919050565b7f496e76616c69642072616e67653a206c6f776572203e3d207570706572000000600082015250565b6000610e6e601d83610c3a565b9150610e7982610e38565b602082019050919050565b60006020820190508181036000830152610e9d81610e61565b9050919050565b7f52616e67652061646a7573746564206279206167656e74000000000000000000600082015250565b6000610eda601783610c3a565b9150610ee582610ea4565b602082019050919050565b6000606082019050610f0560008301856109b5565b610f1260208301846109b5565b8181036040830152610f2381610ecd565b90509392505050565b7f4e6f206c697175696469747920746f2077697468647261770000000000000000600082015250565b6000610f62601883610c3a565b9150610f6d82610f2c565b602082019050919050565b60006020820190508181036000830152610f9181610f55565b9050919050565b7f456d657267656e637920776974686472617720746f207374616b696e67000000600082015250565b6000610fce601d83610c3a565b9150610fd982610f98565b602082019050919050565b6000604082019050610ff96000830184610a47565b818103602083015261100a81610fc1565b905092915050565b7f4465706f73697420616d6f756e74206d7573742062652067726561746572207460008201527f68616e2030000000000000000000000000000000000000000000000000000000602082015250565b600061106e602583610c3a565b915061107982611012565b604082019050919050565b6000602082019050818103600083015261109d81611061565b9050919050565b60006110af82610a3d565b91506110ba83610a3d565b92508282019050808211156110d2576110d1610d23565b5b9291505056fea26469706673582212200724db3bfc6db27c5ebb583618eb5a686df9b8053153488a50b3466aa2ab398a64736f6c63430008140033","opcodes":"PUSH1 0x80 PUSH1 0x40 MSTORE CALLVALUE DUP1 ISZERO PUSH2 0x10 JUMPI PUSH1 0x0 DUP1 REVERT JUMPDEST POP CALLER PUSH1 0x0 DUP1 PUSH2 0x100 EXP DUP2 SLOAD DUP2 PUSH20 0xFFFFFFFFFFFFFFFFFFFFFFFFFFFFFFFFFFFFFFFF MUL NOT AND SWAP1 DUP4 PUSH20 0xFFFFFFFFFFFFFFFFFFFFFFFFFFFFFFFFFFFFFFFF AND MUL OR SWAP1 SSTORE POP PUSH1 0x0 PUSH1 0x1 DUP2 SWAP1 SSTORE POP PUSH32 0xFFFFFFFFFFFFFFFFFFFFFFFFFFFFFFFFFFFFFFFFFFFFFFFFFFFFFFFFFFFFFF88 PUSH1 0x2 DUP2 SWAP1 SSTORE POP PUSH1 0x78 PUSH1 0x3 DUP2 SWAP1 SSTORE POP PUSH1 0x0 PUSH1 0x4 DUP2 SWAP1 SSTORE POP PUSH2 0x110E DUP1 PUSH2 0x9F PUSH1 0x0 CODECOPY PUSH1 0x0 RETURN INVALID PUSH1 0x80 PUSH1 0x40 MSTORE PUSH1 0x4 CALLDATASIZE LT PUSH2 0xE1 JUMPI PUSH1 0x0 CALLDATALOAD PUSH1 0xE0 SHR DUP1 PUSH4 0x9B1344AC GT PUSH2 0x7F JUMPI DUP1 PUSH4 0xD0E30DB0 GT PUSH2 0x59 JUMPI DUP1 PUSH4 0xD0E30DB0 EQ PUSH2 0x281 JUMPI DUP1 PUSH4 0xD9F62452 EQ PUSH2 0x28B JUMPI DUP1 PUSH4 0xDDF32035 EQ PUSH2 0x2B6 JUMPI DUP1 PUSH4 0xFC7E286D EQ PUSH2 0x2E4 JUMPI PUSH2 0xE8 JUMP JUMPDEST DUP1 PUSH4 0x9B1344AC EQ PUSH2 0x216 JUMPI DUP1 PUSH4 0xA91B1594 EQ PUSH2 0x241 JUMPI DUP1 PUSH4 0xCA2871BF EQ PUSH2 0x26A JUMPI PUSH2 0xE8 JUMP JUMPDEST DUP1 PUSH4 0x2E1A7D4D GT PUSH2 0xBB JUMPI DUP1 PUSH4 0x2E1A7D4D EQ PUSH2 0x16C JUMPI DUP1 PUSH4 0x53AAD1D9 EQ PUSH2 0x195 JUMPI DUP1 PUSH4 0x727DD228 EQ PUSH2 0x1C0 JUMPI DUP1 PUSH4 0x8DA5CB5B EQ PUSH2 0x1EB JUMPI PUSH2 0xE8 JUMP JUMPDEST DUP1 PUSH4 0x65E5360 EQ PUSH2 0xED JUMPI DUP1 PUSH4 0x8087357 EQ PUSH2 0x118 JUMPI DUP1 PUSH4 0x15770F92 EQ PUSH2 0x141 JUMPI PUSH2 0xE8 JUMP JUMPDEST CALLDATASIZE PUSH2 0xE8 JUMPI STOP JUMPDEST PUSH1 0x0 DUP1 REVERT JUMPDEST CALLVALUE DUP1 ISZERO PUSH2 0xF9 JUMPI PUSH1 0x0 DUP1 REVERT JUMPDEST POP PUSH2 0x102 PUSH2 0x321 JUMP JUMPDEST PUSH1 0x40 MLOAD PUSH2 0x10F SWAP2 SWAP1 PUSH2 0x9C4 JUMP JUMPDEST PUSH1 0x40 MLOAD DUP1 SWAP2 SUB SWAP1 RETURN JUMPDEST CALLVALUE DUP1 ISZERO PUSH2 0x124 JUMPI PUSH1 0x0 DUP1 REVERT JUMPDEST POP PUSH2 0x13F PUSH1 0x4 DUP1 CALLDATASIZE SUB DUP2 ADD SWAP1 PUSH2 0x13A SWAP2 SWAP1 PUSH2 0xA10 JUMP JUMPDEST PUSH2 0x327 JUMP JUMPDEST STOP JUMPDEST CALLVALUE DUP1 ISZERO PUSH2 0x14D JUMPI PUSH1 0x0 DUP1 REVERT JUMPDEST POP PUSH2 0x156 PUSH2 0x3BF JUMP JUMPDEST PUSH1 0x40 MLOAD PUSH2 0x163 SWAP2 SWAP1 PUSH2 0xA56 JUMP JUMPDEST PUSH1 0x40 MLOAD DUP1 SWAP2 SUB SWAP1 RETURN JUMPDEST CALLVALUE DUP1 ISZERO PUSH2 0x178 JUMPI PUSH1 0x0 DUP1 REVERT JUMPDEST POP PUSH2 0x193 PUSH1 0x4 DUP1 CALLDATASIZE SUB DUP2 ADD SWAP1 PUSH2 0x18E SWAP2 SWAP1 PUSH2 0xA9D JUMP JUMPDEST PUSH2 0x3C5 JUMP JUMPDEST STOP JUMPDEST CALLVALUE DUP1 ISZERO PUSH2 0x1A1 JUMPI PUSH1 0x0 DUP1 REVERT JUMPDEST POP PUSH2 0x1AA PUSH2 0x5B4 JUMP JUMPDEST PUSH1 0x40 MLOAD PUSH2 0x1B7 SWAP2 SWAP1 PUSH2 0x9C4 JUMP JUMPDEST PUSH1 0x40 MLOAD DUP1 SWAP2 SUB SWAP1 RETURN JUMPDEST CALLVALUE DUP1 ISZERO PUSH2 0x1CC JUMPI PUSH1 0x0 DUP1 REVERT JUMPDEST POP PUSH2 0x1D5 PUSH2 0x5BE JUMP JUMPDEST PUSH1 0x40 MLOAD PUSH2 0x1E2 SWAP2 SWAP1 PUSH2 0x9C4 JUMP JUMPDEST PUSH1 0x40 MLOAD DUP1 SWAP2 SUB SWAP1 RETURN JUMPDEST CALLVALUE DUP1 ISZERO PUSH2 0x1F7 JUMPI PUSH1 0x0 DUP1 REVERT JUMPDEST POP PUSH2 0x200 PUSH2 0x5C4 JUMP JUMPDEST PUSH1 0x40 MLOAD PUSH2 0x20D SWAP2 SWAP1 PUSH2 0xB0B JUMP JUMPDEST PUSH1 0x40 MLOAD DUP1 SWAP2 SUB SWAP1 RETURN JUMPDEST CALLVALUE DUP1 ISZERO PUSH2 0x222 JUMPI PUSH1 0x0 DUP1 REVERT JUMPDEST POP PUSH2 0x22B PUSH2 0x5E8 JUMP JUMPDEST PUSH1 0x40 MLOAD PUSH2 0x238 SWAP2 SWAP1 PUSH2 0x9C4 JUMP JUMPDEST PUSH1 0x40 MLOAD DUP1 SWAP2 SUB SWAP1 RETURN JUMPDEST CALLVALUE DUP1 ISZERO PUSH2 0x24D JUMPI PUSH1 0x0 DUP1 REVERT JUMPDEST POP PUSH2 0x268 PUSH1 0x4 DUP1 CALLDATASIZE SUB DUP2 ADD SWAP1 PUSH2 0x263 SWAP2 SWAP1 PUSH2 0xB26 JUMP JUMPDEST PUSH2 0x5EE JUMP JUMPDEST STOP JUMPDEST CALLVALUE DUP1 ISZERO PUSH2 0x276 JUMPI PUSH1 0x0 DUP1 REVERT JUMPDEST POP PUSH2 0x27F PUSH2 0x709 JUMP JUMPDEST STOP JUMPDEST PUSH2 0x289 PUSH2 0x852 JUMP JUMPDEST STOP JUMPDEST CALLVALUE DUP1 ISZERO PUSH2 0x297 JUMPI PUSH1 0x0 DUP1 REVERT JUMPDEST POP PUSH2 0x2A0 PUSH2 0x954 JUMP JUMPDEST PUSH1 0x40 MLOAD PUSH2 0x2AD SWAP2 SWAP1 PUSH2 0xB81 JUMP JUMPDEST PUSH1 0x40 MLOAD DUP1 SWAP2 SUB SWAP1 RETURN JUMPDEST CALLVALUE DUP1 ISZERO PUSH2 0x2C2 JUMPI PUSH1 0x0 DUP1 REVERT JUMPDEST POP PUSH2 0x2CB PUSH2 0x973 JUMP JUMPDEST PUSH1 0x40 MLOAD PUSH2 0x2DB SWAP5 SWAP4 SWAP3 SWAP2 SWAP1 PUSH2 0xB9C JUMP JUMPDEST PUSH1 0x40 MLOAD DUP1 SWAP2 SUB SWAP1 RETURN JUMPDEST CALLVALUE DUP1 ISZERO PUSH2 0x2F0 JUMPI PUSH1 0x0 DUP1 REVERT JUMPDEST POP PUSH2 0x30B PUSH1 0x4 DUP1 CALLDATASIZE SUB DUP2 ADD SWAP1 PUSH2 0x306 SWAP2 SWAP1 PUSH2 0xC0D JUMP JUMPDEST PUSH2 0x993 JUMP JUMPDEST PUSH1 0x40 MLOAD PUSH2 0x318 SWAP2 SWAP1 PUSH2 0xA56 JUMP JUMPDEST PUSH1 0x40 MLOAD DUP1 SWAP2 SUB SWAP1 RETURN JUMPDEST PUSH1 0x1 SLOAD DUP2 JUMP JUMPDEST PUSH1 0x0 DUP1 SLOAD SWAP1 PUSH2 0x100 EXP SWAP1 DIV PUSH20 0xFFFFFFFFFFFFFFFFFFFFFFFFFFFFFFFFFFFFFFFF AND PUSH20 0xFFFFFFFFFFFFFFFFFFFFFFFFFFFFFFFFFFFFFFFF AND CALLER PUSH20 0xFFFFFFFFFFFFFFFFFFFFFFFFFFFFFFFFFFFFFFFF AND EQ PUSH2 0x3B5 JUMPI PUSH1 0x40 MLOAD PUSH32 0x8C379A000000000000000000000000000000000000000000000000000000000 DUP2 MSTORE PUSH1 0x4 ADD PUSH2 0x3AC SWAP1 PUSH2 0xC97 JUMP JUMPDEST PUSH1 0x40 MLOAD DUP1 SWAP2 SUB SWAP1 REVERT JUMPDEST DUP1 PUSH1 0x1 DUP2 SWAP1 SSTORE POP POP JUMP JUMPDEST PUSH1 0x4 SLOAD DUP2 JUMP JUMPDEST DUP1 PUSH1 0x5 PUSH1 0x0 CALLER PUSH20 0xFFFFFFFFFFFFFFFFFFFFFFFFFFFFFFFFFFFFFFFF AND PUSH20 0xFFFFFFFFFFFFFFFFFFFFFFFFFFFFFFFFFFFFFFFF AND DUP2 MSTORE PUSH1 0x20 ADD SWAP1 DUP2 MSTORE PUSH1 0x20 ADD PUSH1 0x0 KECCAK256 SLOAD LT ISZERO PUSH2 0x447 JUMPI PUSH1 0x40 MLOAD PUSH32 0x8C379A000000000000000000000000000000000000000000000000000000000 DUP2 MSTORE PUSH1 0x4 ADD PUSH2 0x43E SWAP1 PUSH2 0xD03 JUMP JUMPDEST PUSH1 0x40 MLOAD DUP1 SWAP2 SUB SWAP1 REVERT JUMPDEST DUP1 PUSH1 0x5 PUSH1 0x0 CALLER PUSH20 0xFFFFFFFFFFFFFFFFFFFFFFFFFFFFFFFFFFFFFFFF AND PUSH20 0xFFFFFFFFFFFFFFFFFFFFFFFFFFFFFFFFFFFFFFFF AND DUP2 MSTORE PUSH1 0x20 ADD SWAP1 DUP2 MSTORE PUSH1 0x20 ADD PUSH1 0x0 KECCAK256 PUSH1 0x0 DUP3 DUP3 SLOAD PUSH2 0x496 SWAP2 SWAP1 PUSH2 0xD52 JUMP JUMPDEST SWAP3 POP POP DUP2 SWAP1 SSTORE POP DUP1 PUSH1 0x4 PUSH1 0x0 DUP3 DUP3 SLOAD PUSH2 0x4AF SWAP2 SWAP1 PUSH2 0xD52 JUMP JUMPDEST SWAP3 POP POP DUP2 SWAP1 SSTORE POP PUSH1 0x0 CALLER PUSH20 0xFFFFFFFFFFFFFFFFFFFFFFFFFFFFFFFFFFFFFFFF AND DUP3 PUSH1 0x40 MLOAD PUSH2 0x4DC SWAP1 PUSH2 0xDB7 JUMP JUMPDEST PUSH1 0x0 PUSH1 0x40 MLOAD DUP1 DUP4 SUB DUP2 DUP6 DUP8 GAS CALL SWAP3 POP POP POP RETURNDATASIZE DUP1 PUSH1 0x0 DUP2 EQ PUSH2 0x519 JUMPI PUSH1 0x40 MLOAD SWAP2 POP PUSH1 0x1F NOT PUSH1 0x3F RETURNDATASIZE ADD AND DUP3 ADD PUSH1 0x40 MSTORE RETURNDATASIZE DUP3 MSTORE RETURNDATASIZE PUSH1 0x0 PUSH1 0x20 DUP5 ADD RETURNDATACOPY PUSH2 0x51E JUMP JUMPDEST PUSH1 0x60 SWAP2 POP JUMPDEST POP POP SWAP1 POP DUP1 PUSH2 0x562 JUMPI PUSH1 0x40 MLOAD PUSH32 0x8C379A000000000000000000000000000000000000000000000000000000000 DUP2 MSTORE PUSH1 0x4 ADD PUSH2 0x559 SWAP1 PUSH2 0xE18 JUMP JUMPDEST PUSH1 0x40 MLOAD DUP1 SWAP2 SUB SWAP1 REVERT JUMPDEST CALLER PUSH20 0xFFFFFFFFFFFFFFFFFFFFFFFFFFFFFFFFFFFFFFFF AND PUSH32 0x884EDAD9CE6FA2440D8A54CC123490EB96D2768479D49FF9C7366125A9424364 DUP4 PUSH1 0x40 MLOAD PUSH2 0x5A8 SWAP2 SWAP1 PUSH2 0xA56 JUMP JUMPDEST PUSH1 0x40 MLOAD DUP1 SWAP2 SUB SWAP1 LOG2 POP POP JUMP JUMPDEST PUSH1 0x0 PUSH1 0x1 SLOAD SWAP1 POP SWAP1 JUMP JUMPDEST PUSH1 0x3 SLOAD DUP2 JUMP JUMPDEST PUSH1 0x0 DUP1 SLOAD SWAP1 PUSH2 0x100 EXP SWAP1 DIV PUSH20 0xFFFFFFFFFFFFFFFFFFFFFFFFFFFFFFFFFFFFFFFF AND DUP2 JUMP JUMPDEST PUSH1 0x2 SLOAD DUP2 JUMP JUMPDEST PUSH1 0x0 DUP1 SLOAD SWAP1 PUSH2 0x100 EXP SWAP1 DIV PUSH20 0xFFFFFFFFFFFFFFFFFFFFFFFFFFFFFFFFFFFFFFFF AND PUSH20 0xFFFFFFFFFFFFFFFFFFFFFFFFFFFFFFFFFFFFFFFF AND CALLER PUSH20 0xFFFFFFFFFFFFFFFFFFFFFFFFFFFFFFFFFFFFFFFF AND EQ PUSH2 0x67C JUMPI PUSH1 0x40 MLOAD PUSH32 0x8C379A000000000000000000000000000000000000000000000000000000000 DUP2 MSTORE PUSH1 0x4 ADD PUSH2 0x673 SWAP1 PUSH2 0xC97 JUMP JUMPDEST PUSH1 0x40 MLOAD DUP1 SWAP2 SUB SWAP1 REVERT JUMPDEST DUP1 DUP3 SLT PUSH2 0x6BE JUMPI PUSH1 0x40 MLOAD PUSH32 0x8C379A000000000000000000000000000000000000000000000000000000000 DUP2 MSTORE PUSH1 0x4 ADD PUSH2 0x6B5 SWAP1 PUSH2 0xE84 JUMP JUMPDEST PUSH1 0x40 MLOAD DUP1 SWAP2 SUB SWAP1 REVERT JUMPDEST DUP2 PUSH1 0x2 DUP2 SWAP1 SSTORE POP DUP1 PUSH1 0x3 DUP2 SWAP1 SSTORE POP PUSH32 0xE973C8B9C5F821791CC8AAABC3C82E83BD514BEDC258EBF76871B927F8080345 DUP3 DUP3 PUSH1 0x40 MLOAD PUSH2 0x6FD SWAP3 SWAP2 SWAP1 PUSH2 0xEF0 JUMP JUMPDEST PUSH1 0x40 MLOAD DUP1 SWAP2 SUB SWAP1 LOG1 POP POP JUMP JUMPDEST PUSH1 0x0 DUP1 SLOAD SWAP1 PUSH2 0x100 EXP SWAP1 DIV PUSH20 0xFFFFFFFFFFFFFFFFFFFFFFFFFFFFFFFFFFFFFFFF AND PUSH20 0xFFFFFFFFFFFFFFFFFFFFFFFFFFFFFFFFFFFFFFFF AND CALLER PUSH20 0xFFFFFFFFFFFFFFFFFFFFFFFFFFFFFFFFFFFFFFFF AND EQ PUSH2 0x797 JUMPI PUSH1 0x40 MLOAD PUSH32 0x8C379A000000000000000000000000000000000000000000000000000000000 DUP2 MSTORE PUSH1 0x4 ADD PUSH2 0x78E SWAP1 PUSH2 0xC97 JUMP JUMPDEST PUSH1 0x40 MLOAD DUP1 SWAP2 SUB SWAP1 REVERT JUMPDEST PUSH1 0x0 PUSH1 0x4 SLOAD SWAP1 POP PUSH1 0x0 DUP2 GT PUSH2 0x7E1 JUMPI PUSH1 0x40 MLOAD PUSH32 0x8C379A000000000000000000000000000000000000000000000000000000000 DUP2 MSTORE PUSH1 0x4 ADD PUSH2 0x7D8 SWAP1 PUSH2 0xF78 JUMP JUMPDEST PUSH1 0x40 MLOAD DUP1 SWAP2 SUB SWAP1 REVERT JUMPDEST PUSH1 0x0 PUSH1 0x4 DUP2 SWAP1 SSTORE POP PUSH32 0xFFFFFFFFFFFFFFFFFFFFFFFFFFFFFFFFFFFFFFFFFFFFFFFFFFFFFFFFFFFFFF88 PUSH1 0x2 DUP2 SWAP1 SSTORE POP PUSH1 0x78 PUSH1 0x3 DUP2 SWAP1 SSTORE POP PUSH32 0x67252DF4D683A80C0CEF21D586CC881076FF8F53385B7C1AB2842029AF85B7DD DUP2 PUSH1 0x40 MLOAD PUSH2 0x847 SWAP2 SWAP1 PUSH2 0xFE4 JUMP JUMPDEST PUSH1 0x40 MLOAD DUP1 SWAP2 SUB SWAP1 LOG1 POP JUMP JUMPDEST PUSH1 0x0 CALLVALUE GT PUSH2 0x895 JUMPI PUSH1 0x40 MLOAD PUSH32 0x8C379A000000000000000000000000000000000000000000000000000000000 DUP2 MSTORE PUSH1 0x4 ADD PUSH2 0x88C SWAP1 PUSH2 0x1084 JUMP JUMPDEST PUSH1 0x40 MLOAD DUP1 SWAP2 SUB SWAP1 REVERT JUMPDEST CALLVALUE PUSH1 0x5 PUSH1 0x0 CALLER PUSH20 0xFFFFFFFFFFFFFFFFFFFFFFFFFFFFFFFFFFFFFFFF AND PUSH20 0xFFFFFFFFFFFFFFFFFFFFFFFFFFFFFFFFFFFFFFFF AND DUP2 MSTORE PUSH1 0x20 ADD SWAP1 DUP2 MSTORE PUSH1 0x20 ADD PUSH1 0x0 KECCAK256 PUSH1 0x0 DUP3 DUP3 SLOAD PUSH2 0x8E4 SWAP2 SWAP1 PUSH2 0x10A4 JUMP JUMPDEST SWAP3 POP POP DUP2 SWAP1 SSTORE POP CALLVALUE PUSH1 0x4 PUSH1 0x0 DUP3 DUP3 SLOAD PUSH2 0x8FD SWAP2 SWAP1 PUSH2 0x10A4 JUMP JUMPDEST SWAP3 POP POP DUP2 SWAP1 SSTORE POP CALLER PUSH20 0xFFFFFFFFFFFFFFFFFFFFFFFFFFFFFFFFFFFFFFFF AND PUSH32 0xE1FFFCC4923D04B559F4D29A8BFC6CDA04EB5B0D3C460751C2402C5C5CC9109C CALLVALUE PUSH1 0x40 MLOAD PUSH2 0x94A SWAP2 SWAP1 PUSH2 0xA56 JUMP JUMPDEST PUSH1 0x40 MLOAD DUP1 SWAP2 SUB SWAP1 LOG2 JUMP JUMPDEST PUSH1 0x0 PUSH1 0x2 SLOAD PUSH1 0x1 SLOAD SLT ISZERO DUP1 ISZERO PUSH2 0x96E JUMPI POP PUSH1 0x3 SLOAD PUSH1 0x1 SLOAD SGT ISZERO JUMPDEST SWAP1 POP SWAP1 JUMP JUMPDEST PUSH1 0x0 DUP1 PUSH1 0x0 DUP1 PUSH1 0x1 SLOAD PUSH1 0x2 SLOAD PUSH1 0x3 SLOAD PUSH1 0x4 SLOAD SWAP4 POP SWAP4 POP SWAP4 POP SWAP4 POP SWAP1 SWAP2 SWAP3 SWAP4 JUMP JUMPDEST PUSH1 0x5 PUSH1 0x20 MSTORE DUP1 PUSH1 0x0 MSTORE PUSH1 0x40 PUSH1 0x0 KECCAK256 PUSH1 0x0 SWAP2 POP SWAP1 POP SLOAD DUP2 JUMP JUMPDEST PUSH1 0x0 DUP2 SWAP1 POP SWAP2 SWAP1 POP JUMP JUMPDEST PUSH2 0x9BE DUP2 PUSH2 0x9AB JUMP JUMPDEST DUP3 MSTORE POP POP JUMP JUMPDEST PUSH1 0x0 PUSH1 0x20 DUP3 ADD SWAP1 POP PUSH2 0x9D9 PUSH1 0x0 DUP4 ADD DUP5 PUSH2 0x9B5 JUMP JUMPDEST SWAP3 SWAP2 POP POP JUMP JUMPDEST PUSH1 0x0 DUP1 REVERT JUMPDEST PUSH2 0x9ED DUP2 PUSH2 0x9AB JUMP JUMPDEST DUP2 EQ PUSH2 0x9F8 JUMPI PUSH1 0x0 DUP1 REVERT JUMPDEST POP JUMP JUMPDEST PUSH1 0x0 DUP2 CALLDATALOAD SWAP1 POP PUSH2 0xA0A DUP2 PUSH2 0x9E4 JUMP JUMPDEST SWAP3 SWAP2 POP POP JUMP JUMPDEST PUSH1 0x0 PUSH1 0x20 DUP3 DUP5 SUB SLT ISZERO PUSH2 0xA26 JUMPI PUSH2 0xA25 PUSH2 0x9DF JUMP JUMPDEST JUMPDEST PUSH1 0x0 PUSH2 0xA34 DUP5 DUP3 DUP6 ADD PUSH2 0x9FB JUMP JUMPDEST SWAP2 POP POP SWAP3 SWAP2 POP POP JUMP JUMPDEST PUSH1 0x0 DUP2 SWAP1 POP SWAP2 SWAP1 POP JUMP JUMPDEST PUSH2 0xA50 DUP2 PUSH2 0xA3D JUMP JUMPDEST DUP3 MSTORE POP POP JUMP JUMPDEST PUSH1 0x0 PUSH1 0x20 DUP3 ADD SWAP1 POP PUSH2 0xA6B PUSH1 0x0 DUP4 ADD DUP5 PUSH2 0xA47 JUMP JUMPDEST SWAP3 SWAP2 POP POP JUMP JUMPDEST PUSH2 0xA7A DUP2 PUSH2 0xA3D JUMP JUMPDEST DUP2 EQ PUSH2 0xA85 JUMPI PUSH1 0x0 DUP1 REVERT JUMPDEST POP JUMP JUMPDEST PUSH1 0x0 DUP2 CALLDATALOAD SWAP1 POP PUSH2 0xA97 DUP2 PUSH2 0xA71 JUMP JUMPDEST SWAP3 SWAP2 POP POP JUMP JUMPDEST PUSH1 0x0 PUSH1 0x20 DUP3 DUP5 SUB SLT ISZERO PUSH2 0xAB3 JUMPI PUSH2 0xAB2 PUSH2 0x9DF JUMP JUMPDEST JUMPDEST PUSH1 0x0 PUSH2 0xAC1 DUP5 DUP3 DUP6 ADD PUSH2 0xA88 JUMP JUMPDEST SWAP2 POP POP SWAP3 SWAP2 POP POP JUMP JUMPDEST PUSH1 0x0 PUSH20 0xFFFFFFFFFFFFFFFFFFFFFFFFFFFFFFFFFFFFFFFF DUP3 AND SWAP1 POP SWAP2 SWAP1 POP JUMP JUMPDEST PUSH1 0x0 PUSH2 0xAF5 DUP3 PUSH2 0xACA JUMP JUMPDEST SWAP1 POP SWAP2 SWAP1 POP JUMP JUMPDEST PUSH2 0xB05 DUP2 PUSH2 0xAEA JUMP JUMPDEST DUP3 MSTORE POP POP JUMP JUMPDEST PUSH1 0x0 PUSH1 0x20 DUP3 ADD SWAP1 POP PUSH2 0xB20 PUSH1 0x0 DUP4 ADD DUP5 PUSH2 0xAFC JUMP JUMPDEST SWAP3 SWAP2 POP POP JUMP JUMPDEST PUSH1 0x0 DUP1 PUSH1 0x40 DUP4 DUP6 SUB SLT ISZERO PUSH2 0xB3D JUMPI PUSH2 0xB3C PUSH2 0x9DF JUMP JUMPDEST JUMPDEST PUSH1 0x0 PUSH2 0xB4B DUP6 DUP3 DUP7 ADD PUSH2 0x9FB JUMP JUMPDEST SWAP3 POP POP PUSH1 0x20 PUSH2 0xB5C DUP6 DUP3 DUP7 ADD PUSH2 0x9FB JUMP JUMPDEST SWAP2 POP POP SWAP3 POP SWAP3 SWAP1 POP JUMP JUMPDEST PUSH1 0x0 DUP2 ISZERO ISZERO SWAP1 POP SWAP2 SWAP1 POP JUMP JUMPDEST PUSH2 0xB7B DUP2 PUSH2 0xB66 JUMP JUMPDEST DUP3 MSTORE POP POP JUMP JUMPDEST PUSH1 0x0 PUSH1 0x20 DUP3 ADD SWAP1 POP PUSH2 0xB96 PUSH1 0x0 DUP4 ADD DUP5 PUSH2 0xB72 JUMP JUMPDEST SWAP3 SWAP2 POP POP JUMP JUMPDEST PUSH1 0x0 PUSH1 0x80 DUP3 ADD SWAP1 POP PUSH2 0xBB1 PUSH1 0x0 DUP4 ADD DUP8 PUSH2 0x9B5 JUMP JUMPDEST PUSH2 0xBBE PUSH1 0x20 DUP4 ADD DUP7 PUSH2 0x9B5 JUMP JUMPDEST PUSH2 0xBCB PUSH1 0x40 DUP4 ADD DUP6 PUSH2 0x9B5 JUMP JUMPDEST PUSH2 0xBD8 PUSH1 0x60 DUP4 ADD DUP5 PUSH2 0xA47 JUMP JUMPDEST SWAP6 SWAP5 POP POP POP POP POP JUMP JUMPDEST PUSH2 0xBEA DUP2 PUSH2 0xAEA JUMP JUMPDEST DUP2 EQ PUSH2 0xBF5 JUMPI PUSH1 0x0 DUP1 REVERT JUMPDEST POP JUMP JUMPDEST PUSH1 0x0 DUP2 CALLDATALOAD SWAP1 POP PUSH2 0xC07 DUP2 PUSH2 0xBE1 JUMP JUMPDEST SWAP3 SWAP2 POP POP JUMP JUMPDEST PUSH1 0x0 PUSH1 0x20 DUP3 DUP5 SUB SLT ISZERO PUSH2 0xC23 JUMPI PUSH2 0xC22 PUSH2 0x9DF JUMP JUMPDEST JUMPDEST PUSH1 0x0 PUSH2 0xC31 DUP5 DUP3 DUP6 ADD PUSH2 0xBF8 JUMP JUMPDEST SWAP2 POP POP SWAP3 SWAP2 POP POP JUMP JUMPDEST PUSH1 0x0 DUP3 DUP3 MSTORE PUSH1 0x20 DUP3 ADD SWAP1 POP SWAP3 SWAP2 POP POP JUMP JUMPDEST PUSH32 0x4F6E6C79206F776E65722063616E2063616C6C20746869730000000000000000 PUSH1 0x0 DUP3 ADD MSTORE POP JUMP JUMPDEST PUSH1 0x0 PUSH2 0xC81 PUSH1 0x18 DUP4 PUSH2 0xC3A JUMP JUMPDEST SWAP2 POP PUSH2 0xC8C DUP3 PUSH2 0xC4B JUMP JUMPDEST PUSH1 0x20 DUP3 ADD SWAP1 POP SWAP2 SWAP1 POP JUMP JUMPDEST PUSH1 0x0 PUSH1 0x20 DUP3 ADD SWAP1 POP DUP2 DUP2 SUB PUSH1 0x0 DUP4 ADD MSTORE PUSH2 0xCB0 DUP2 PUSH2 0xC74 JUMP JUMPDEST SWAP1 POP SWAP2 SWAP1 POP JUMP JUMPDEST PUSH32 0x496E73756666696369656E74206465706F736974000000000000000000000000 PUSH1 0x0 DUP3 ADD MSTORE POP JUMP JUMPDEST PUSH1 0x0 PUSH2 0xCED PUSH1 0x14 DUP4 PUSH2 0xC3A JUMP JUMPDEST SWAP2 POP PUSH2 0xCF8 DUP3 PUSH2 0xCB7 JUMP JUMPDEST PUSH1 0x20 DUP3 ADD SWAP1 POP SWAP2 SWAP1 POP JUMP JUMPDEST PUSH1 0x0 PUSH1 0x20 DUP3 ADD SWAP1 POP DUP2 DUP2 SUB PUSH1 0x0 DUP4 ADD MSTORE PUSH2 0xD1C DUP2 PUSH2 0xCE0 JUMP JUMPDEST SWAP1 POP SWAP2 SWAP1 POP JUMP JUMPDEST PUSH32 0x4E487B7100000000000000000000000000000000000000000000000000000000 PUSH1 0x0 MSTORE PUSH1 0x11 PUSH1 0x4 MSTORE PUSH1 0x24 PUSH1 0x0 REVERT JUMPDEST PUSH1 0x0 PUSH2 0xD5D DUP3 PUSH2 0xA3D JUMP JUMPDEST SWAP2 POP PUSH2 0xD68 DUP4 PUSH2 0xA3D JUMP JUMPDEST SWAP3 POP DUP3 DUP3 SUB SWAP1 POP DUP2 DUP2 GT ISZERO PUSH2 0xD80 JUMPI PUSH2 0xD7F PUSH2 0xD23 JUMP JUMPDEST JUMPDEST SWAP3 SWAP2 POP POP JUMP JUMPDEST PUSH1 0x0 DUP2 SWAP1 POP SWAP3 SWAP2 POP POP JUMP JUMPDEST POP JUMP JUMPDEST PUSH1 0x0 PUSH2 0xDA1 PUSH1 0x0 DUP4 PUSH2 0xD86 JUMP JUMPDEST SWAP2 POP PUSH2 0xDAC DUP3 PUSH2 0xD91 JUMP JUMPDEST PUSH1 0x0 DUP3 ADD SWAP1 POP SWAP2 SWAP1 POP JUMP JUMPDEST PUSH1 0x0 PUSH2 0xDC2 DUP3 PUSH2 0xD94 JUMP JUMPDEST SWAP2 POP DUP2 SWAP1 POP SWAP2 SWAP1 POP JUMP JUMPDEST PUSH32 0x5769746864726177616C206661696C6564000000000000000000000000000000 PUSH1 0x0 DUP3 ADD MSTORE POP JUMP JUMPDEST PUSH1 0x0 PUSH2 0xE02 PUSH1 0x11 DUP4 PUSH2 0xC3A JUMP JUMPDEST SWAP2 POP PUSH2 0xE0D DUP3 PUSH2 0xDCC JUMP JUMPDEST PUSH1 0x20 DUP3 ADD SWAP1 POP SWAP2 SWAP1 POP JUMP JUMPDEST PUSH1 0x0 PUSH1 0x20 DUP3 ADD SWAP1 POP DUP2 DUP2 SUB PUSH1 0x0 DUP4 ADD MSTORE PUSH2 0xE31 DUP2 PUSH2 0xDF5 JUMP JUMPDEST SWAP1 POP SWAP2 SWAP1 POP JUMP JUMPDEST PUSH32 0x496E76616C69642072616E67653A206C6F776572203E3D207570706572000000 PUSH1 0x0 DUP3 ADD MSTORE POP JUMP JUMPDEST PUSH1 0x0 PUSH2 0xE6E PUSH1 0x1D DUP4 PUSH2 0xC3A JUMP JUMPDEST SWAP2 POP PUSH2 0xE79 DUP3 PUSH2 0xE38 JUMP JUMPDEST PUSH1 0x20 DUP3 ADD SWAP1 POP SWAP2 SWAP1 POP JUMP JUMPDEST PUSH1 0x0 PUSH1 0x20 DUP3 ADD SWAP1 POP DUP2 DUP2 SUB PUSH1 0x0 DUP4 ADD MSTORE PUSH2 0xE9D DUP2 PUSH2 0xE61 JUMP JUMPDEST SWAP1 POP SWAP2 SWAP1 POP JUMP JUMPDEST PUSH32 0x52616E67652061646A7573746564206279206167656E74000000000000000000 PUSH1 0x0 DUP3 ADD MSTORE POP JUMP JUMPDEST PUSH1 0x0 PUSH2 0xEDA PUSH1 0x17 DUP4 PUSH2 0xC3A JUMP JUMPDEST SWAP2 POP PUSH2 0xEE5 DUP3 PUSH2 0xEA4 JUMP JUMPDEST PUSH1 0x20 DUP3 ADD SWAP1 POP SWAP2 SWAP1 POP JUMP JUMPDEST PUSH1 0x0 PUSH1 0x60 DUP3 ADD SWAP1 POP PUSH2 0xF05 PUSH1 0x0 DUP4 ADD DUP6 PUSH2 0x9B5 JUMP JUMPDEST PUSH2 0xF12 PUSH1 0x20 DUP4 ADD DUP5 PUSH2 0x9B5 JUMP JUMPDEST DUP2 DUP2 SUB PUSH1 0x40 DUP4 ADD MSTORE PUSH2 0xF23 DUP2 PUSH2 0xECD JUMP JUMPDEST SWAP1 POP SWAP4 SWAP3 POP POP POP JUMP JUMPDEST PUSH32 0x4E6F206C697175696469747920746F2077697468647261770000000000000000 PUSH1 0x0 DUP3 ADD MSTORE POP JUMP JUMPDEST PUSH1 0x0 PUSH2 0xF62 PUSH1 0x18 DUP4 PUSH2 0xC3A JUMP JUMPDEST SWAP2 POP PUSH2 0xF6D DUP3 PUSH2 0xF2C JUMP JUMPDEST PUSH1 0x20 DUP3 ADD SWAP1 POP SWAP2 SWAP1 POP JUMP JUMPDEST PUSH1 0x0 PUSH1 0x20 DUP3 ADD SWAP1 POP DUP2 DUP2 SUB PUSH1 0x0 DUP4 ADD MSTORE PUSH2 0xF91 DUP2 PUSH2 0xF55 JUMP JUMPDEST SWAP1 POP SWAP2 SWAP1 POP JUMP JUMPDEST PUSH32 0x456D657267656E637920776974686472617720746F207374616B696E67000000 PUSH1 0x0 DUP3 ADD MSTORE POP JUMP JUMPDEST PUSH1 0x0 PUSH2 0xFCE PUSH1 0x1D DUP4 PUSH2 0xC3A JUMP JUMPDEST SWAP2 POP PUSH2 0xFD9 DUP3 PUSH2 0xF98 JUMP JUMPDEST PUSH1 0x20 DUP3 ADD SWAP1 POP SWAP2 SWAP1 POP JUMP JUMPDEST PUSH1 0x0 PUSH1 0x40 DUP3 ADD SWAP1 POP PUSH2 0xFF9 PUSH1 0x0 DUP4 ADD DUP5 PUSH2 0xA47 JUMP JUMPDEST DUP2 DUP2 SUB PUSH1 0x20 DUP4 ADD MSTORE PUSH2 0x100A DUP2 PUSH2 0xFC1 JUMP JUMPDEST SWAP1 POP SWAP3 SWAP2 POP POP JUMP JUMPDEST PUSH32 0x4465706F73697420616D6F756E74206D75737420626520677265617465722074 PUSH1 0x0 DUP3 ADD MSTORE PUSH32 0x68616E2030000000000000000000000000000000000000000000000000000000 PUSH1 0x20 DUP3 ADD MSTORE POP JUMP JUMPDEST PUSH1 0x0 PUSH2 0x106E PUSH1 0x25 DUP4 PUSH2 0xC3A JUMP JUMPDEST SWAP2 POP PUSH2 0x1079 DUP3 PUSH2 0x1012 JUMP JUMPDEST PUSH1 0x40 DUP3 ADD SWAP1 POP SWAP2 SWAP1 POP JUMP JUMPDEST PUSH1 0x0 PUSH1 0x20 DUP3 ADD SWAP1 POP DUP2 DUP2 SUB PUSH1 0x0 DUP4 ADD MSTORE PUSH2 0x109D DUP2 PUSH2 0x1061 JUMP JUMPDEST SWAP1 POP SWAP2 SWAP1 POP JUMP JUMPDEST PUSH1 0x0 PUSH2 0x10AF DUP3 PUSH2 0xA3D JUMP JUMPDEST SWAP2 POP PUSH2 0x10BA DUP4 PUSH2 0xA3D JUMP JUMPDEST SWAP3 POP DUP3 DUP3 ADD SWAP1 POP DUP1 DUP3 GT ISZERO PUSH2 0x10D2 JUMPI PUSH2 0x10D1 PUSH2 0xD23 JUMP JUMPDEST JUMPDEST SWAP3 SWAP2 POP POP JUMP INVALID LOG2 PUSH5 0x6970667358 0x22 SLT KECCAK256 SMOD 0x24 0xDB EXTCODESIZE 0xFC PUSH14 0xB27C5EBB583618EB5A686DF9B805 BALANCE MSTORE8 BASEFEE DUP11 POP 0xB3 CHAINID PUSH11 0xA2AB398A64736F6C634300 ADDMOD EQ STOP CALLER "},"methodIdentifiers":{"adjustRange(int256,int256)":"a91b1594","currentTick()":"065e5360","deposit()":"d0e30db0","deposits(address)":"fc7e286d","getCurrentTick()":"53aad1d9","getPositionState()":"ddf32035","isInRange()":"d9f62452","lowerTick()":"9b1344ac","owner()":"8da5cb5b","setCurrentTick(int256)":"08087357","totalLiquidity()":"15770f92","upperTick()":"727dd228","withdraw(uint256)":"2e1a7d4d","withdrawToStaking()":"ca2871bf"}}}}}